:100000000C94EA000C9412010C9412010C9412014D
:100010000C9412010C9412010C9412010C94120114
:100020000C9412010C9412010C9412010C94120104
:100030000C9412010C9412010C9412010C941201F4
:100040000C9449030C9412010C9412010C941201AB
:100050000C9412010C9412010C9412010C941201D4
:100060000C9424040C941201840EE40EE40EDA0DB8
:10007000E40E200E670E640EE40EE40EE40E5E0E37
:10008000330EE90DE40EE40EE40EE40E030EE40E6E
:10009000B90EE40EE40EE40E560EE40EE40EE40E89
:1000A000E40EE40EE40EE40E8C0EE40EE40EC50D38
:1000B000E40EE40E750E6A0E980EC80DE40ECB0D1C
:1000C0001A0E1D0EE40EE40EE40EE40E9E0E480E13
:1000D000E40EE40EEC0DE40E590EF40D0763423607
:1000E000B79BD8A71A39685618AEBAAB558C1D3CC9
:1000F000B7CC5763BD6DEDFD753EF6177231BF008D
:100100000000803F08000000BE922449123EABAAC6
:10011000AA2ABECDCCCC4C3E00000080BEABAAAA21
:10012000AA3E00000000BF000000803F0000000069
:1001300000084178D3BB4387D1133D190E3CC3BDA2
:100140004282AD2B3E68EC8276BED98FE1A93E4C4F
:1001500080EFFFBE01C4FF7F3F00000000000000F1
:100160000000240027002A000000000025002800CD
:100170002B000000000023002600290004040404D2
:100180000404040402020202020203030303030341
:10019000010204081020408001020408102001021E
:1001A00004081020000000080002010000030407FA
:1001B00000000000000000001F1C1F1E1F1E1F1F4C
:1001C0001E1F1E1F00030205000305010406020492
:1001D00095162A1011241FBECFEFD8E0DEBFCDBF89
:1001E00023E0AAE8B2E001C01D92AE3CB207E1F7FD
:1001F00012E0A0E0B1E0E4E7F0E402C005900D9267
:10020000AA38B107D9F710E0C9EED0E004C02197B1
:10021000FE010E945F1BC83ED107C9F70E943A1039
:100220000C942D200C9400000895CF92DF92EF9251
:10023000FF920F931F93CF93DF936C017A018B0191
:10024000C0E0D0E0CE15DF0589F0D8016D918D01B9
:10025000D601ED91FC910190F081E02DC601099548
:10026000892B11F47E0102C02196ECCFC701DF91EA
:10027000CF911F910F91FF90EF90DF90CF90089555
:10028000833081F028F4813099F08230A1F0089514
:100290008730A9F08830B9F08430D1F480918000A3
:1002A0008F7D03C0809180008F77809380000895B8
:1002B00084B58F7702C084B58F7D84BD0895809109
:1002C000B0008F7703C08091B0008F7D8093B00025
:1002D00008953FB7F8948091E8029091E902A091C7
:1002E000EA02B091EB0226B5A89B05C02F3F19F09A
:1002F0000196A11DB11D3FBFBA2FA92F982F8827A6
:10030000820F911DA11DB11DBC01CD0142E0660F00
:10031000771F881F991F4A95D1F7089585ED80931F
:10032000BC008091BC0084FDFCCF1092680308954E
:100330004091BE02262F30E0240F311D21323105BD
:10034000DCF4209168032430C9F4FC0180E090E0E3
:10035000861758F43091BE022191DC01A456BD4F9E
:10036000A30FB11D2C930196F3CF8091BE02680FAD
:100370006093BE0280E0089581E0089582E00895D0
:100380000895E091150380911403E81730F4F0E02C
:10039000EA5EFC4F808190E008958FEF9FEF089513
:1003A0009091150380911403981750F4E92FF0E011
:1003B000EA5EFC4F208130E09F5F9093150302C0FE
:1003C0002FEF3FEFC90108958091140390E0209131
:1003D0001503821B91090895CF92DF92EF92FF924D
:1003E0000F931F93CF93DF937C01262F972F8A01C2
:1003F00080916903882391F0C62FD72F6E01C40E18
:10040000D51ECC15DD0571F06991D701ED91FC91F8
:100410000190F081E02DC7010995F3CF642F822F61
:100420000E949801C801DF91CF911F910F91FF9019
:10043000EF90DF90CF900895CF93DF931F92CDB7C9
:10044000DEB76983209169032223D1F020918C03C8
:10045000203240F021E030E0FC013383228380E051
:1004600090E015C080916A03E82FF0E0E559FC4F59
:10047000998190838F5F80936A0380938C0305C07A
:1004800061E0CE0101960E94980181E090E00F901A
:10049000DF91CF910895089580E090E00895FC01E8
:1004A00011821082138212821582148261157105E5
:1004B00051F0FB0101900020E9F73197AF01461B95
:1004C000570B0C94540A0895CF93DF93282F30E0F4
:1004D000F901EC55FE4F8491F901E057FE4FD4919C
:1004E000F901E458FE4FC491CC2391F081110E9490
:1004F0004001EC2FF0E0EE0FFF1FEE58FE4FA591EC
:10050000B491EC91ED2381E090E021F480E002C011
:1005100080E090E0DF91CF9108951F93CF93DF9318
:10052000282F30E0F901EC55FE4F8491F901E05796
:10053000FE4FD491F901E458FE4FC491CC23C9F089
:10054000162F81110E944001EC2FF0E0EE0FFF1FEB
:10055000E859FE4FA591B4918FB7F894111105C0D9
:100560009C91ED2FE095E92302C0EC91ED2BEC93EB
:100570008FBFDF91CF911F910895CF93DF93EC014F
:1005800060E08E810E948D0261E08E810E948D026A
:1005900060E08E810E948D028BE891E00197F1F777
:1005A000DF91CF910895CF93DF9390E0FC01E05766
:1005B000FE4F2491FC01E458FE4F8491882361F1A1
:1005C00090E0880F991FFC01E25AFE4FC591D4912B
:1005D000FC01E859FE4FA591B491611109C09FB784
:1005E000F8948881209582238883EC912E230BC078
:1005F000623061F49FB7F8943881822F809583230D
:100600008883EC912E2B2C939FBF06C08FB7F89454
:10061000E8812E2B28838FBFDF91CF9108958F9291
:100620009F92AF92BF92CF92DF92EF92FF926B01B7
:100630007C010E9469014B015C01C114D104E104F9
:10064000F104F1F00E946901DC01CB0188199909DC
:10065000AA09BB09883E9340A105B10570F321E0CA
:10066000C21AD108E108F10888EE880E83E0981ECE
:10067000A11CB11CC114D104E104F10419F7DDCFB0
:10068000FF90EF90DF90CF90BF90AF909F908F90B2
:1006900008951F920F920FB60F9211242F933F933C
:1006A0008F939F93AF93BF938091E4029091E50263
:1006B000A091E602B091E7023091E30223E0230F1C
:1006C0002D3720F40196A11DB11D05C026E8230F8A
:1006D0000296A11DB11D2093E3028093E402909342
:1006E000E502A093E602B093E7028091E8029091C0
:1006F000E902A091EA02B091EB020196A11DB11DA1
:100700008093E8029093E902A093EA02B093EB028F
:10071000BF91AF919F918F913F912F910F900FBEFD
:100720000F901F901895CF92DF92EF92FF920F9348
:100730001F93CF93DF937C016C0187E0C80ED11C1F
:10074000C0E0D0E0062F10E0B8010C2E02C0759575
:1007500067950A94E2F76170F60181916F010E943A
:100760008D022196C430D10579F7C701DF91CF9171
:100770001F910F91FF90EF90DF90CF900C94BD02EE
:10078000CF92DF92EF92FF920F931F93CF93DF935D
:10079000EC01F62E642F8C810E948D028D818F3F9B
:1007A00019F060E00E948D028F850F2D10E084FF0C
:1007B00025C06E0187E0C80ED11CE12CF12CB801D8
:1007C0000E2C02C0759567950A94E2F76170F601E8
:1007D00081916F010E948D02FFEFEF1AFF0A88E0FE
:1007E000E816F10461F7CE01DF91CF911F910F91CF
:1007F000FF90EF90DF90CF900C94BD02B80184E0A1
:10080000759567958A95E1F7CE010E9493036F2D48
:10081000CE01DF91CF911F910F91FF90EF90DF906C
:10082000CF900C94930341E00E94C00381E090E0DC
:10083000089540E00C94C00361E00E9419048BE32A
:100840009FE10197F1F708951F920F920FB60F9253
:1008500011242F933F934F935F936F937F938F93C5
:100860009F93AF93BF93EF93FF938091B900887FDD
:10087000803609F49CC068F5883209F45BC090F4B6
:10088000803109F454C038F4882309F4F6C0883064
:1008900009F44DC0F6C0883109F44CC0803209F427
:1008A0005DC0EFC0803409F468C048F4803309F4B7
:1008B00055C0883309F0E5C080936603D8C0803501
:1008C00009F44FC0883509F45DC0883409F0D9C0F7
:1008D000D6C0883909F4C7C0A8F4883709F467C0BE
:1008E00038F4883609F463C0803709F460C0C9C0A1
:1008F000883809F4B8C0803909F45FC0803809F03D
:10090000C0C05BC0803B09F486C038F4803A09F46B
:1009100066C0883A09F47FC0B4C0803C09F4A7C01F
:10092000883C09F4A4C0883B09F48AC0AAC080911D
:10093000430310C09091650380916403981770F58C
:10094000E091650381E08E0F80936503F0E0EC5B3E
:10095000FC4F80818093BB0085EC86C0809366034A
:100960008EC0E091650381E08E0F809365038091D6
:10097000BB00F0E0EC5BFC4F8083909165038091BD
:1009800064036EC0E091650381E08E0F8093650380
:100990008091BB00F0E0EC5BFC4F808380916703AB
:1009A00081116DC081E08093420384EA61C083E0DD
:1009B000809368031092E202CFCF8091E2028032EE
:1009C00008F051C0E091E20281E08E0F8093E202D4
:1009D0008091BB00F0E0EE53FD4F8083BDCF85ECEE
:1009E0008093BC00109268038091E202803230F460
:1009F000E091E202F0E0EE53FD4F10826091E202DE
:100A000070E0E091C002F091C10282EC92E00995A1
:100A10001092E20236C084E0809368031092BF0215
:100A20001092BE02E091BC02F091BD020995809146
:100A3000BE02811105C081E08093BE0210929C022B
:100A4000E091BF0281E08E0F8093BF02F0E0E45698
:100A5000FD4F80818093BB009091BF028091BE02C8
:100A6000981708F479CF85E88093BC000AC085EC1C
:100A70008093BC001092680304C0109266030E9429
:100A80008E01FF91EF91BF91AF919F918F917F91D7
:100A90006F915F914F913F912F910F900FBE0F90EB
:100AA0001F9018951092680381E08093670310925D
:100AB000420361E082E10E948D0261E083E10E94D5
:100AC0008D02E9EBF0E080818E7F808380818D7FD5
:100AD000808388E48093B80085E48093BC00089507
:100AE0004F925F926F927F92AF92BF92CF92DF92BE
:100AF000EF92FF920F931F93CF93DF93CDB7DEB7A3
:100B000062970FB6F894DEBF0FBECDBF82EB93E0C5
:100B10000E941C0460E080E00E940C108AE892E0D1
:100B20000E94090FC0908A02D0908B02E0908C0244
:100B3000F0908D0200918E0210918F022091900210
:100B400030919102409192025091930260919402EF
:100B5000709195028AE591E00E94100DBC01CE01D2
:100B600001960E944F02BE016F5F7F4F85EA93E0BE
:100B70000E941B0ACE0101960E94A30A65EA73E057
:100B8000CE0101960E94D40ACE0101960E94211046
:100B9000CE0101960E94A30A61E080E00E940C1041
:100BA0008091040190910501069734F081E090E076
:100BB00090930501809304018091040190910501B7
:100BC0001816190634F085E090E0909305018093A3
:100BD00004018091040190910501059709F073C00B
:100BE0008091B10391E09093690380938B031092FD
:100BF0006A0310928C038BEA90E00E94D80B0E944B
:100C00007B0B62E08091B1030E948E0C1092150361
:100C10008093140390E082309105ECF38DE893E02B
:100C20000E94D001182F8DE893E00E94D001982FE8
:100C30008827BC01612B072E000C880B990B0E94A2
:100C4000471720E030E040EF53E40E94FE1820E018
:100C500030E04AE252E40E94921820E030E040E0A6
:100C600050E40E9491180E9470194AE0CE0101964A
:100C70000E94A80A66E671E0CE0107960E944F0224
:100C8000BE016F5F7F4FCE0107960E94080A6DE696
:100C900071E00E94EF09BC01CE010D960E94D40ABA
:100CA000CE0107960E94A30ACE0101960E94A30AD4
:100CB000BE01635F7F4F89E993E00E948C0ACE01F9
:100CC0000D960E94A30A809104019091050101975D
:100CD00009F0C1C019821A821B821C821D8261E048
:100CE00088E00E94D30260E088E00E948D0262E109
:100CF00070E080E090E00E940F0361E088E00E94D5
:100D00008D028BE990E00197F1F760E088E00E94A6
:100D1000D30201E117E288E00E946402892B21F4EA
:100D200001501109C1F765C001E117E288E00E9496
:100D30006402019721F401501109C1F75AC028E259
:100D4000E22EF12C17E000E0CC24C394D12C91E1E9
:100D5000A92E97E2B92E88E00E946402892B29F41B
:100D600021E0A21AB108B9F744C00E9469012B0121
:100D70003C0181E1A82E87E2B82E88E00E9464023F
:100D8000019729F481E0A81AB108B9F732C00E948E
:100D90006901DC01CB0184199509A609B709899776
:100DA000A105B10578F0E1E0F0E0EC0FFD1FE00FE8
:100DB000F11D2081C601012E01C0880F0A94EAF7B7
:100DC000822B8083111103C00F5F17E001C0115007
:100DD00021E0E21AF10809F0BACF898190E09093FE
:100DE0009902809398028B8190E090939B0280936C
:100DF0009A0260919802709199024AE0CE010196A0
:100E00000E94A80A60E771E0CE0107960E944F0297
:100E1000BE016F5F7F4FCE0107960E94080A6DE703
:100E200071E00E94EF09BC01CE010D960E94D40A28
:100E3000CE0107960E94A30ACE0101960E94A30A42
:100E4000BE01635F7F4F89E993E00E948C0ACE0167
:100E50000D960E94A30A80910401909105010297CA
:100E6000D1F50E94AE0F0E94471720E030E040E825
:100E700059E30E9482170E9470194AE0CE01019640
:100E80000E94A80A6FE771E0CE0107960E944F0208
:100E9000BE016F5F7F4FCE0107960E94080A6AE885
:100EA00071E00E94EF09BC01CE010D960E94D40AA8
:100EB000CE0107960E94A30ACE0101960E94A30AC2
:100EC000BE01635F7F4F89E993E00E948C0ACE01E7
:100ED0000D960E94A30A8091040190910501039749
:100EE00009F05CC00E94AE0F0E94471720E030E07E
:100EF00040E859E30E9482170E947019072E000CE7
:100F0000880B990B0E94471720E030E54DE754E429
:100F10000E94FE182EE434ED42E45EE30E94A6191E
:100F20009B01AC0160E070E080E89FE30E949118B3
:100F30002DEC3AE24DE257E40E9482170E947019AC
:100F40004AE0CE0101960E94A80A6EE871E0CE0147
:100F500007960E944F02BE016F5F7F4FCE0107963A
:100F60000E94080A6DEE71E00E94EF09BC01CE01FB
:100F70000D960E94D40ACE0107960E94A30ACE01C4
:100F800001960E94A30ABE01635F7F4F89E993E047
:100F90000E948C0ACE010D960E94A30A8091040142
:100FA00090910501049741F580E480937C00809145
:100FB0007A00806480937A0080917A0086FDFCCF6D
:100FC000809178002091790090E0922B9093970285
:100FD00080939602853F91401CF46DE971E002C058
:100FE00069E971E08BEA93E00E94750A6BEA73E0AD
:100FF00089E993E00E948C0A69E973E0CE010196C9
:101000000E94D40ACE0101960E942110CE010196C1
:101010000E94A30A68E572E080E090E00E940F035E
:1010200062960FB6F894DEBF0FBECDBFDF91CF91B1
:101030001F910F91FF90EF90DF90CF90BF90AF90F6
:101040007F906F905F904F9008950F931F93CF9371
:10105000DF93CDB7DEB7EC970FB6F894DEBF0FBEC7
:10106000CDBF8C016091F0027091F1024AE0CE0197
:10107000C1960E94A80A6091EE027091EF024AE0C8
:10108000CE018B960E94A80A609100017091010127
:101090004AE0CE0185960E94A80A609102017091F3
:1010A00003014AE0CE014F960E94A80A6091F00227
:1010B0007091F1024AE0CE0107960E94A80A62EA06
:1010C00071E0CE0101960E944F02BE01695F7F4F21
:1010D000CE0101960E94080ABC01CE0149960E94E9
:1010E000D40ACE0101960E94A30ACE0107960E945F
:1010F000A30A6091EE027091EF024AE0CE010796DA
:101100000E94A80A62EA71E0CE0101960E944F0295
:10111000BE01695F7F4FCE0101960E94080ABC01A3
:10112000CE0143960E94D40ACE0101960E94A30AE2
:10113000CE0107960E94A30A6091020170910301FB
:101140004AE0CE0107960E94A80A62EA71E0CE0149
:1011500001960E944F02BE01695F7F4FCE0101964A
:101160000E94080ABC01CE010D960E94D40ACE014D
:1011700001960E94A30ACE0107960E94A30A6091DD
:101180000001709101014AE0CE01C7960E94A80AB1
:1011900062EA71E0CE0101960E944F02BE01695CD5
:1011A0007F4FCE0101960E94080ABC01CE0107962E
:1011B0000E94D40ACE0101960E94A30ACE01C796CE
:1011C0000E94A30A8091F0029091F1020A9738F4EC
:1011D000BE01675E7F4FCE01C1960E948C0A80914E
:1011E000EE029091EF020A9738F4BE016D5E7F4FD8
:1011F000CE018B960E948C0A809100019091010192
:101200000A9738F4BE01695F7F4FCE0185960E9430
:101210008C0A80910201909103010A9738F4BE0173
:10122000635F7F4FCE014F960E948C0A6091EC0263
:101230007091ED026053784F4AE0CE0101960E9412
:10124000A80ABE016F5C7F4FCE01C7960E94D40AE8
:1012500068E871E0CE01C7960E94EF09BE01655DA6
:101260007F4F0E94080A67E971E00E94EF09BE0102
:101270006B5D7F4F0E94080A64EC71E00E94EF09E9
:10128000BE01615E7F4F0E94080A64EC71E00E941B
:10129000EF09BE016F5F7F4F0E94080ABC01C801C1
:1012A0000E94D40ACE01C7960E94A30ACE010196DD
:1012B0000E94A30ACE0107960E94A30ACE010D96B2
:1012C0000E94A30ACE0143960E94A30ACE0149962A
:1012D0000E94A30ACE014F960E94A30ACE018596D2
:1012E0000E94A30ACE018B960E94A30ACE01C1964A
:1012F0000E94A30AC801EC960FB6F894DEBF0FBE99
:10130000CDBFDF91CF911F910F9108950E945C1D79
:10131000CF93DF93EC0188819981009711F00E94AF
:10132000FA1B198218821D821C821B821A82DF918D
:10133000CF9108950F931F93CF93DF93EC01888192
:101340009981009729F02A813B812617370788F475
:101350008B016F5F7F4F0E94921C009761F0998311
:1013600088831B830A832C813D81232B11F4FC018C
:10137000108281E001C080E0DF91CF911F910F9139
:101380000895EF92FF920F931F93CF93DF93FC0189
:10139000248135816115710511F480E019C0411572
:1013A0005105A9F07B01EC018A01020F131FB8015E
:1013B0000E949A09882389F3288139818C819D8133
:1013C000B701820F931F0E94751D1D830C8381E05E
:1013D000DF91CF911F910F91FF90EF900895CF93E0
:1013E000DF93EC016115710561F0FB0101900020B4
:1013F000E9F73197AF01461B570B0E94C1098111D4
:1014000003C0CE010E948809CE01DF91CF910895DB
:10141000CF93DF93EC01FB014481558160817181A1
:101420000E94C109811103C0CE010E948809CE012A
:10143000DF91CF9108950F931F93CF93DF938C018A
:10144000EB01FC01808191810097B1F06881798185
:101450006115710579F0428153812C813D814217DC
:10146000530740F00E94751D8C819D81F801958382
:10147000848313C00E94FA1B88819981F8019183AB
:1014800080838A819B81938382838C819D819583D4
:101490008483198218821B821A821D821C82DF912A
:1014A000CF911F910F910895EF92FF920F931F9389
:1014B000CF93DF93EC017B018A01BA010E949A0964
:1014C000811104C0CE010E94880907C01D830C83CE
:1014D000B701888199810E94751DCE01DF91CF915E
:1014E0001F910F91FF90EF900895CF93DF93EC0140
:1014F0006115710559F0FB0101900020E9F7319762
:10150000AF01461B570B0E94540A02C00E94880973
:10151000CE01DF91CF910895CF93DF93EC01FB01D2
:101520008617970761F0608171816115710529F057
:10153000448155810E94540A02C00E948809CE014C
:10154000DF91CF910895FC01808191810C94FA1B69
:101550000F931F93CF93DF93CDB7DEB762970FB68C
:10156000F894DEBF0FBECDBF8C01CB01F801118214
:101570001082138212821582148250E0BE016F5FC6
:101580007F4F0E94FD16BE016F5F7F4FC8010E9412
:10159000750A62960FB6F894DEBF0FBECDBFDF911D
:1015A000CF911F910F910895FC0111821082138237
:1015B0001282158214820C948C0AEF92FF920F9380
:1015C0001F93CF93DF93EC01623018F08F85886012
:1015D0008F876B8B1C8A80E48D8B80E18E8B80E5FE
:1015E0008F8B61E08C810E94D3028D818F3F19F037
:1015F00061E00E94D30261E08E810E94D3027E01ED
:1016000087E0E80EF11C00E010E08F8584FD03C048
:1016100084E090E002C088E090E0081719074CF4DD
:1016200061E0F70181917F010E94D3020F5F1F4F9C
:10163000ECCF8BE39DE00197F1F760E08C810E9495
:101640008D0260E08E810E948D028D818F3F19F0A6
:1016500060E00E948D026F8564FD1DC063E0CE01D5
:101660000E9493030BE416E4C8010197F1F763E0CD
:10167000CE010E949303C8010197F1F763E0CE0108
:101680000E94930383E592E00197F1F762E0CE01B7
:101690000E94930316C06062CE010E9419048BE47D
:1016A00096E40197F1F76F856062CE010E941904FC
:1016B00083E592E00197F1F76F856062CE010E94A9
:1016C00019046F856062CE010E94190484E0888B42
:1016D0006CE0CE010E941904CE010E941C0482E03D
:1016E000898B66E0CE01DF91CF911F910F91FF9022
:1016F000EF900C94190420918C0390918B0321326C
:1017000008F04AC0809168038111FCCF32E0309329
:10171000680331E0309367033FEF30936603109224
:10172000650320936403ABE6B3E044E453E0FA01BD
:101730003E2F341B321718F43D913193F9CF10929C
:10174000430320914303990F922B9093430390916D
:101750004203913061F410924203909143039093BD
:10176000BB009091BC0093FDF8CF95EC01C095EEC5
:101770009093BC00909168039230E1F390916603DE
:101780009F3F79F080916603803241F0809166033B
:10179000803331F084E005C081E003C082E001C005
:1017A00083E010926A0310928C03109269030895EB
:1017B000682F8DE893E00C941C02AF92BF92CF92F9
:1017C000DF92FF920F931F93CF93DF931F92CDB7BA
:1017D000DEB75C01162FF42E81E08093690388E662
:1017E00080938B0310926A0310928C0380E090E048
:1017F00029830E94D80B60E08DE893E00E941C02D0
:101800005AE0D52E802F6D2D0E942B1B692F30E1C1
:10181000839F600D11248DE893E00E941C022981B2
:10182000822F6D2D0E942B1B692F20E1829F600D5E
:1018300011248DE893E00E941C0281E090E01330B7
:1018400010F080E090E06501C81AD90AE12FF0E0BD
:10185000ED53FE4FE49196012F0D311DC601969573
:10186000879596958795280F391FC60160E971E025
:101870000E94371B260F371FC60164E670E00E94E6
:10188000371B261B370BC9018E0F911D67E070E0D7
:101890000E94371B009709F487E00AE0602F0E943E
:1018A0002B1B692F8DE893E00E941C028F2D602F67
:1018B0000E942B1B692F30E1839F600D11248DE85E
:1018C00093E00E941C02812F602F0E942B1B692F26
:1018D00020E1829F600D11248DE893E00E941C029C
:1018E00080E38A0D602F0E942B1B692F30E1839FBC
:1018F000600D11248DE893E00E941C0280E090E0CE
:101900000E94D80B0F90DF91CF911F910F91FF9004
:10191000DF90CF90BF90AF900C947B0B90916803B9
:101920009111FCCF91E090936803909367032FEFA0
:101930002093660310926503260F2093640390930F
:10194000430390914303880F892B80934303809135
:101950004203813061F410924203809143038093EB
:10196000BB008091BC0083FDF8CF85EC01C085EE03
:101970008093BC00809168038130E1F3809165031E
:10198000861710F460916503A4E4B3E026E133E028
:10199000F9018E2F821B861718F48D918193F9CF50
:1019A000862F0895813208F080E2682F88E60E9431
:1019B0008E0C10921503809314030895DC01A05D32
:1019C000B74050E0E8EBF1E021E02E1B322F3E0F54
:1019D000361728F43491430F511D3196F7CF6230FA
:1019E00029F49D0123703327232BB9F02DE631E034
:1019F000A29FB001A39F700DB29F700D11249C0196
:101A00002D5C37403695279536952795CB01820F6B
:101A1000931F0197840F951F08954F5F5F4FE6CF87
:101A20002F923F924F925F926F927F928F929F92EE
:101A3000AF92BF92CF92DF92EF92FF920F931F93DC
:101A4000CF93DF93CDB7DEB7C052D1400FB6F89435
:101A5000DEBF0FBECDBFF82FE92FC55FDE4FC882B6
:101A6000CB50D140C45FDE4FD882CC50D140C05F54
:101A7000DE4F1883C051D140CF5EDE4F2883C15165
:101A8000D140CD5EDE4F4883C351D140CC5EDE4FA6
:101A90005883C451D140CB5EDE4F6883C551D140DD
:101AA000CA5EDE4F7883C651D140C55FDE4FA88045
:101AB000B980CB50D1401E2D1982632E712CC301E9
:101AC000079667E070E00E944B1BE82EC25EDE4F77
:101AD0009883CE51D1408F2D6AE00E942B1BC95EA6
:101AE000DE4F9883C751D1408F2E9E2E6E01D39426
:101AF000250143E044225524812F90E0DC01A954C4
:101B0000BE4FC15EDE4FB983A883CF51D1402FEFC6
:101B1000210FC85EDE4F2883C851D140822F90E04C
:101B2000880F991FAC014A5E5E4FC65EDE4F598337
:101B30004883CA51D1403150C75EDE4F3883C95106
:101B4000D140832F90E0880F991F9C01225D3E4F6A
:101B5000C45EDE4F39832883CC51D140B401D40117
:101B6000ED914D01EE2309F438C18E2FEE0F990B44
:101B7000AA0BBB0BFC01E154F109EA33F10508F0B3
:101B800023C1EC5CFF4F0C945F1B1F92FF92DDC0E2
:101B90001F92FF92B6C0C75EDE4F3881C951D14057
:101BA000373008F05DC0C45EDE4FA881B981CC51EA
:101BB000D14053C0C75EDE4F2881C951D140273084
:101BC00008F061C0C45EDE4FA881B981CC51D1401C
:101BD00057C07F926F9295C0C25EDE4F2881CE5172
:101BE000D1402F93EF928DC041E061E0C5010E948A
:101BF000DE0C1C014F2D612FC5010E94DE0C8219E5
:101C000093099F937DC0C95EDE4F3881C751D14093
:101C1000313039F0323041F0333049F060EE71E06C
:101C200082C06AE272E07FC06AED71E07CC06DED57
:101C300071E079C01F921F9388C01F921F9361C0EB
:101C4000C85EDE4F2881C851D1402C3048F4C65EB2
:101C5000DE4FA881B981CA51D1406D917C9163C09A
:101C600062ED71E060C0C85EDE4F2881C851D1408E
:101C70002C3048F4C65EDE4FA881B981CA51D140EC
:101C80006D917C9102C062ED71E043E050E09EC036
:101C9000C15EDE4FE881F981CF51D140849112308D
:101CA00071F54114510409F496C029C0BF92AF9256
:101CB00028C0C501805D97409F9346C081E04114D4
:101CC0005104E9F080E01BC01F920F933EC01F92A9
:101CD0000F9317C0002329F00D3028F084EF800FF8
:101CE00032C08CE030C0802F2EC0002329F00D3090
:101CF00028F084EF800F03C08CE001C0802F1F927A
:101D00008F9384EF91E023C00C3018F066EE71E001
:101D10000AC063EE71E007C00C3018F069EE71E0A4
:101D200002C06CEE71E0CE0101960E946A1D16CFD2
:101D3000C05FDE4F8881C051D14005C0CF5EDE4F0D
:101D40008881C151D1401F928F938FEE91E09F9374
:101D50008F93DF92CF920E948C1DB601CE01019627
:101D60000E946A1D0F900F900F900F900F900F9090
:101D7000F5CECA5EDE4F8881C651D1408F93CB5ECF
:101D8000DE4F8881C551D1408F93CC5EDE4F888174
:101D9000C451D1408F93CD5EDE4F8881C351D14075
:101DA0008F9387EF91E09F938F93DF92CF920E9462
:101DB0008C1DB601CE0101960E946A1D0FB6F894E3
:101DC000DEBF0FBECDBFCACE41E050E0CE010196CE
:101DD0000E947C1DC3CE8F5F92CFCE010196C05E64
:101DE000DE4F0FB6F894DEBF0FBECDBFDF91CF91AF
:101DF0001F910F91FF90EF90DF90CF90BF90AF9029
:101E00009F908F907F906F905F904F903F902F901A
:101E10000895CF92DF92EF92FF920F931F93CF938B
:101E2000DF93CDB7DEB72E970FB6F894DEBF0FBEA7
:101E3000CDBF8C0181E08093690388E680938B039A
:101E400010926A0310928C0380E090E00E94D80BFD
:101E50000E947B0B87E090E00E94D20C90911403CB
:101E6000809115039817F1F37E018FE0E80EF11CC5
:101E7000FE0131966F018DE893E00E94D001282F7A
:101E800082958F702F70FAE08F9F200D112430E023
:101E9000F701329322937F01EC15FD0561F70E9453
:101EA0007B0B89819A818053984F9093370380935D
:101EB00036036B81609338034D81409339032F8142
:101EC00020933D03D984D0923A03EB84E0923B0304
:101ED000FD84F0923C030E94DE0C9C01A8E1B0E07E
:101EE0000E9482189B01AC012D0D311D411D511D19
:101EF000ACE3B0E00E9440189B01AC012E0D311DF7
:101F0000411D511D0E944018DC01CB018F0D911D18
:101F1000A11DB11D80599A4CA249B74C80933E0334
:101F200090933F03A0934003B09341038CE0E6E31A
:101F3000F3E0D80101900D928A95E1F7C8012E9641
:101F40000FB6F894DEBF0FBECDBFDF91CF911F91CA
:101F50000F91FF90EF90DF90CF9008950F931F9314
:101F6000CF93DF938091B10391E0909369038093C5
:101F70008B0310926A0310928C0388EA90E00E940F
:101F8000D80B0E947B0B63E08091B1030E948E0C02
:101F9000109215038093140390E083309105ECF3C5
:101FA0008DE893E00E94D001082F8DE893E00E9415
:101FB000D001182F8DE893E00E94D001482F880FA0
:101FC000550B660B770BBA0155274427402BD12FB1
:101FD00000E0C02FCE01A0E0B0E08A019B01082BF9
:101FE000192B2A2B3B2BC901B801DF91CF911F91EF
:101FF0000F910895009769F0FC0101900020E9F726
:102000003197AF01481B590BBC0182EB93E00C9454
:10201000150180E090E00895643008F063E090914D
:10202000C503691710F06FEF690FE62FF0E0EE546B
:10203000FC4F9489682F690F606882EB93E00C94E1
:102040001904FC01448155816081718182EB93E028
:102050000C94150189E993E00E94A30A8FE993E0AB
:102060000E94A30A85EA93E00E94A30A8BEA93E008
:102070000C94A30ACF93DF93CDB7DEB766970FB664
:10208000F894DEBF0FBECDBF789484B5826084BD66
:1020900084B5816084BD85B5826085BD85B581606C
:1020A00085BD80916E00816080936E0010928100EA
:1020B00080918100826080938100809181008160A5
:1020C0008093810080918000816080938000809166
:1020D000B10084608093B1008091B00081608093F2
:1020E000B00080917A00846080937A0080917A00B9
:1020F000826080937A0080917A00816080937A0078
:1021000080917A00806880937A001092C10062E02A
:1021100082EB93E00E94DD0A1092150310921403E3
:1021200010926A0310928C030E94520510921503BC
:102130001092140310926A0310928C030E945205AD
:1021400081E08093690388E680938B0310926A0391
:1021500010928C036EE08DE893E00E941C020E94B6
:102160007B0B81E090E00E94D20C9091140380914F
:1021700015039817F1F38DE893E00E94D001082F22
:102180000E947B0B11E01093690388E680938B0318
:1021900010926A0310928C036EE08DE893E00E9427
:1021A0001C02602F6B738DE893E00E941C020E945A
:1021B0007B0B80ED97E09093370380933603109369
:1021C00038031093390310923A0310923B03109294
:1021D0003C0386E080933D0380E795E3ADE6B8E3FA
:1021E00080933E0390933F03A0934003B093410339
:1021F00060E088E00E94D30262E087E00E94D302A0
:1022000062E086E00E94D30262E089E00E94D3028D
:102210008091B1031093690380938B0310926A033A
:1022200010928C0360E28DE893E00E941C0260EE45
:102230008DE893E00E941C020E947B0B00E02CE0E2
:102240004FE065E082EE97E00E94DD0B87E00E94A0
:102250006402909313038093120389E00E94640246
:10226000909311038093100386E00E946402909380
:102270000F0380930E0382E093E00E94090FC09049
:102280000203D0900303E0900403F0900503009153
:102290000603109107032091080330910903409130
:1022A0000A0350910B0360910C0370910D0384EAB3
:1022B00091E00E94100DBC01CE0101960E944F02D8
:1022C000BE016F5F7F4F8FE993E00E941B0ACE0132
:1022D00001960E94A30A80919F039091A0030E94FF
:1022E000DF16909301038093000380911203909175
:1022F0001303009739F481E090E09093FF028093FC
:10230000FE02B7C4019709F0B4C48091FE02909117
:10231000FF028130910509F0ACC41092FF021092C7
:10232000FE029093F9028093F8029093FD0280934D
:10233000FC0282EB93E00E941C0486EA91E00E947A
:10234000FA0F61E080E00E940C1086EB91E00E94A1
:10235000FA0F46E0C42ED12C53E6A52EB12C0EE187
:1023600010E063E6862E912C8CE1282E312C9DE125
:10237000492E512C27E1622E712C8091F802909108
:10238000F902019709F065C487E00E9464027C01AC
:10239000909313038093120389E00E946402909348
:1023A00011038093100386E00E94640290930F0350
:1023B00080930E0381E0E816F10429F4F092FD0207
:1023C000E092FC02A3C0EF2809F0A0C08091FC02BB
:1023D0009091FD02019709F099C0ECE0F1E0DE0177
:1023E00011968AE001900D928A95E1F71092FD0214
:1023F0001092FC028091F6029091F702B6010E94C1
:102400004B1B01969093F7028093F6022091F40201
:102410003091F5022F5F3F4F3093F5022093F40285
:10242000069709F463C082EB93E00E941C04CE017E
:102430000B960E942508CE010B960E942110CE011A
:102440000B960E94A30AE090F602F090F702F701C3
:102450003197EE0FFF1F81E090E08C0F9D1FE80F7A
:10246000F91F61E080810E940C1066EC71E0CE01E2
:102470000B960E944F0292E0E916F10419F469EC00
:1024800071E011C083E0E816F10419F46CEC71E01E
:102490000AC094E0E916F10491F385E0E816F1042E
:1024A00061F46FEC71E0CE010B960E94750ABC01DD
:1024B000CE0141960E94D40A0DC01A8A198A1C8A3C
:1024C0001B8A1E8A1D8ABE01655F7F4FCE01419621
:1024D0000E941B0ACE010B960E94A30ACE014196D0
:1024E0000E942110CE0141960E94A30A8091F4021D
:1024F0009091F502069724F01092F9021092F802DA
:1025000068E572E080E090E00E940F038091100384
:1025100090911103892BA9F58091F6029091F70211
:10252000019779F58091F0029091F102019688313E
:1025300091052CF49093F1028093F00204C0109264
:10254000F1021092F00282EB93E00E941C04CE0193
:1025500001960E942508CE0101960E942110CE010D
:1025600001960E94A30A61E080E00E940C1086ECB4
:1025700091E00E94FA0F68E572E080E090E00E942E
:102580000F038091100390911103892BA9F580917D
:10259000F6029091F702029779F58091EE02909100
:1025A000EF0201968C3391052CF49093EF02809307
:1025B000EE0204C01092EF021092EE0282EB93E062
:1025C0000E941C04CE0101960E942508CE010196AE
:1025D0000E942110CE0101960E94A30A61E083E0CF
:1025E0000E940C1089EC91E00E94FA0F68E572E0FD
:1025F00080E090E00E940F038091100390911103FE
:10260000892B81F58091F6029091F702039751F59D
:102610008091EC029091ED02B5010E944B1B019656
:102620009093ED028093EC0282EB93E00E941C04F5
:10263000CE0101960E942508CE0101960E9421102C
:10264000CE0101960E94A30A61E08EE00E940C1068
:102650008CEC91E00E94FA0F68E572E080E090E077
:102660000E940F038091100390911103892B89F52B
:102670008091F6029091F702049759F5809102013A
:10268000909103016CE070E00E944B1B01969093C7
:1026900003018093020182EB93E00E941C04CE01AF
:1026A00001960E942508CE0101960E942110CE01BC
:1026B00001960E94A30A61E089E00E940C1089EC57
:1026C00091E00E94FA0F68E572E080E090E00E94DD
:1026D0000F0380910201909103019C012D7F213015
:1026E000310571F08530910559F09C012750310971
:1026F0002230310528F08A30910511F00C97B9F598
:102700008091100390911103892B89F58091F60235
:102710009091F702059759F5809100019091010180
:102720006FE170E00E944B1B019690930101809332
:10273000000182EB93E00E941C04CE0101960E94EE
:102740002508CE0101960E942110CE0101960E941B
:10275000A30A61E087E00E940C108FEC91E00E94D8
:10276000FA0F68E572E080E090E00E940F0380912C
:102770000201909103018D7F8430910511F009973A
:10278000B1F58091100390911103892B81F580910F
:10279000F6029091F702059751F580910001909112
:1027A0000101B8010E944B1B019690930101809397
:1027B000000182EB93E00E941C04CE0101960E946E
:1027C0002508CE0101960E942110CE0101960E949B
:1027D000A30A61E087E00E940C108FEC91E00E9458
:1027E000FA0F68E572E080E090E00E940F038091AC
:1027F000020190910301029709F04AC08091EC0216
:102800009091ED0283709927892B29F45092F3025D
:102810004092F20204C03092F3022092F2028091C0
:10282000100390911103892B99F58091F6029091F4
:10283000F702059769F5809100019091010160917F
:10284000F2027091F3020E944B1B019690930101DA
:102850008093000182EB93E00E941C04CE0101965C
:102860000E942508CE0101960E942110CE010196FA
:102870000E94A30A61E087E00E940C108FEC91E0B7
:102880000E94FA0F68E572E080E090E00E940F037A
:1028900080910E0390910F03892BA1F58091F60290
:1028A0009091F702019771F58091F0029091F102F9
:1028B000019797FD05C09093F1028093F00204C048
:1028C0007092F1026092F00282EB93E00E941C048D
:1028D000CE0101960E942508CE0101960E9421108A
:1028E000CE0101960E94A30A61E080E00E940C10D4
:1028F00086EC91E00E94FA0F68E572E080E090E0DB
:102900000E940F0380910E0390910F03892B89F58C
:102910008091F6029091F702029759F58091EE02AC
:102920009091EF02019797FF02C08BE390E09093A4
:10293000EF028093EE0282EB93E00E941C04CE0132
:1029400001960E942508CE0101960E942110CE0119
:1029500001960E94A30A61E083E00E940C1089ECBA
:1029600091E00E94FA0F68E572E080E090E00E943A
:102970000F0380910E0390910F03892BA1F5809195
:10298000F6029091F702039771F58091EC02909115
:10299000ED02019797FD05C09093ED028093EC0244
:1029A00004C09092ED028092EC0282EB93E00E94D0
:1029B0001C04CE0101960E942508CE0101960E94BA
:1029C0002110CE0101960E94A30A61E08EE00E94D0
:1029D0000C108CEC91E00E94FA0F68E572E080E048
:1029E00090E00E940F0380910E0390910F03892BBA
:1029F00091F58091F6029091F702049761F580912C
:102A000002019091030101971816190614F08CE049
:102A100090E0909303018093020182EB93E00E9487
:102A20001C04CE0101960E942508CE0101960E9449
:102A30002110CE0101960E94A30A61E089E00E9464
:102A40000C1089EC91E00E94FA0F68E572E080E0DA
:102A500090E00E940F0380910201909103019C017C
:102A60002D7F2130310571F08530910559F09C01A1
:102A7000275031092230310528F08A30910511F0B4
:102A80000C97C1F580910E0390910F03892B91F55E
:102A90008091F6029091F702059761F5809100010F
:102AA0009091010101971816190614F08FE190E03A
:102AB000909301018093000182EB93E00E941C043B
:102AC000CE0101960E942508CE0101960E94211098
:102AD000CE0101960E94A30A61E087E00E940C10DB
:102AE0008FEC91E00E94FA0F68E572E080E090E0E0
:102AF0000E940F0380910201909103018D7F843029
:102B0000910511F00997D9F580910E0390910F036B
:102B1000892BA9F58091F6029091F702059779F536
:102B200080910001909101010197181619062CF46B
:102B3000909301018093000104C010930101009360
:102B4000000182EB93E00E941C04CE0101960E94DA
:102B50002508CE0101960E942110CE0101960E9407
:102B6000A30A61E087E00E940C108FEC91E00E94C4
:102B7000FA0F68E572E080E090E00E940F03809118
:102B8000020190910301029709F0F7CB8091EC02CA
:102B90009091ED0283709927009719F42DE130E0B0
:102BA00002C02CE130E03093F3022093F202209136
:102BB0000E0330910F03232B09F0D6CB2091F602A0
:102BC0003091F7022530310509F0CECB209100017C
:102BD000309101012150310930930101209300010E
:102BE0001216130644F0009731F42DE130E03093D3
:102BF0000101209300012091000130910101121682
:102C0000130644F0892B31F08CE190E090930101A0
:102C10008093000182EB93E00E941C04CE01019698
:102C20000E942508CE0101960E942110CE01019636
:102C30000E94A30A61E087E00E940C108FEC91E0F3
:102C40000E94FA0F68E572E080E090E00E940F03B6
:102C50008BCB8091EC029091ED020091EE022091DD
:102C6000F00240910001609102018053984F0E9450
:102C7000DD0B809100039091010369E070E00E94F8
:102C80004B1B892B11F40E947005809110039091C9
:102C90001103009739F481E090E09093FD02809356
:102CA000FC0217C00197A9F48091FC029091FD02EB
:102CB000019779F41092FD021092FC0280910401B8
:102CC00090910501019690930501809304010E9463
:102CD000700580910E0390910F03009739F481E005
:102CE00090E09093FB028093FA0217C00197A9F439
:102CF0008091FA029091FB02019779F41092FB0205
:102D00001092FA028091040190910501019790932D
:102D10000501809304010E94700580E090E0892BFA
:102D200009F494CA0E94000091CAEDE8F3E013820E
:102D3000128288EE93E0A0E0B0E084839583A683BE
:102D4000B78380E491E091838083E2EBF3E0138228
:102D5000128282E591E0918380838CE084838FEFFF
:102D600085838BE0868385E0878384E0808783E0AA
:102D7000818782E0828713861486158616861786D9
:102D800061E0CF010E94DD0A8DE58093B10368E91F
:102D900071E08BEA93E00E944F0268E971E085EAF6
:102DA00093E00E944F0268E971E08FE993E00E948E
:102DB0004F0268E971E089E993E00C944F02FC014D
:102DC00088279927E89421912032E9F3293010F0DF
:102DD0002E30C8F32B3241F02D3239F4689404C000
:102DE0000E941317820F911D219120532A30C0F3A6
:102DF0001EF4909581959F4F08954532510520F41A
:102E0000423010F00C940817FB011082CB0108959A
:102E1000BB274A3031F4992322F4BDE29095819585
:102E20009F4F0C941C177AE0979F902D879F802DC1
:102E3000910D11240895BB27FB015527AA27880F60
:102E4000991FAA1FA41710F0A41B83955051B9F71E
:102E5000A05DAA3308F0A95DA193009779F7B1119D
:102E6000B1931192CB010C943517DC01FC01672F53
:102E700071917723E1F7329704C07C916D93708351
:102E80006291AE17BF07C8F30895E89409C097FB95
:102E90003EF490958095709561957F4F8F4F9F4F31
:102EA0009923A9F0F92F96E9BB279395F695879575
:102EB00077956795B795F111F8CFFAF4BB0F11F438
:102EC00060FF1BC06F5F7F4F8F4F9F4F16C08823DF
:102ED00011F096E911C0772321F09EE8872F762F15
:102EE00005C0662371F096E8862F70E060E02AF056
:102EF0009A95660F771F881FDAF7880F9695879542
:102F000097F908950E9495170C9406180E94F817D7
:102F100038F00E94FF1720F0952311F00C94EF1762
:102F20000C94F51711240C943A180E94171870F39A
:102F3000959FC1F3950F50E0551F629FF001729F5E
:102F4000BB27F00DB11D639FAA27F00DB11DAA1F6D
:102F5000649F6627B00DA11D661F829F2227B00DBA
:102F6000A11D621F739FB00DA11D621F839FA00D45
:102F7000611D221F749F3327A00D611D231F849F95
:102F8000600D211D822F762F6A2F11249F575040EC
:102F90009AF0F1F088234AF0EE0FFF1FBB1F661F67
:102FA000771F881F91505040A9F79E3F510580F030
:102FB0000C94EF170C943A185F3FE4F3983ED4F367
:102FC000869577956795B795F795E7959F5FC1F7D4
:102FD000FE2B880F911D9695879597F9089597F97F
:102FE0009F6780E870E060E008959FEF80EC0895AF
:102FF00000240A94161617061806090608950024D8
:103000000A9412161306140605060895092E039451
:10301000000C11F4882352F0BB0F40F4BF2B11F4C5
:1030200060FF04C06F5F7F4F8F4F9F4F089557FD24
:103030009058440F551F59F05F3F71F04795880F26
:1030400097FB991F61F09F3F79F0879508951216BD
:1030500013061406551FF2CF4695F1DF08C0161669
:1030600017061806991FF1CF86957105610508941A
:103070000895E894BB2766277727CB0197F9089531
:103080000E948218A59F900DB49F900DA49F800D63
:10309000911D112408952F923F924F925F926F924B
:1030A0007F928F929F92AF92BF92CF92DF92EF92D8
:1030B000FF920F931F93CF93DF93CDB7DEB7CA1B59
:1030C000DB0B0FB6F894DEBF0FBECDBF09942A8884
:1030D000398848885F846E847D848C849B84AA842C
:1030E000B984C884DF80EE80FD800C811B81AA81B9
:1030F000B981CE0FD11D0FB6F894DEBF0FBECDBF84
:10310000ED010895A29FB001B39FC001A39F700D70
:10311000811D1124911DB29F700D811D1124911DDF
:1031200008955058BB27AA270E94A9180C94061886
:103130000E94F81738F00E94FF1720F039F49F3FE3
:1031400019F426F40C94F5170EF4E095E7FB0C94B3
:10315000EF17E92F0E94171858F3BA176207730781
:103160008407950720F079F4A6F50C9439180EF42D
:10317000E0950B2EBA2FA02D0B01B90190010C0187
:10318000CA01A0011124FF27591B99F0593F50F49F
:10319000503E68F11A16F040A22F232F342F4427F7
:1031A000585FF3CF469537952795A795F0405395EF
:1031B000C9F77EF41F16BA0B620B730B840BBAF0BF
:1031C0009150A1F0FF0FBB1F661F771F881FC2F72A
:1031D0000EC0BA0F621F731F841F48F4879577953E
:1031E0006795B795F7959E3F08F0B0CF9395880FF8
:1031F00008F09927EE0F9795879508950E94121968
:103200000C9406180E94FF1758F00E94F81740F01F
:1032100029F45F3F29F00C94EF1751110C943A18E0
:103220000C94F5170E94171868F39923B1F35523EE
:1032300091F3951B550BBB27AA27621773078407C9
:1032400038F09F5F5F4F220F331F441FAA1FA9F35F
:1032500035D00E2E3AF0E0E832D091505040E6954D
:10326000001CCAF72BD0FE2F29D0660F771F881FAE
:10327000BB1F261737074807AB07B0E809F0BB0BA1
:10328000802DBF01FF2793585F4F3AF09E3F5105B5
:1032900078F00C94EF170C943A185F3FE4F3983EE3
:1032A000D4F3869577956795B795F7959F5FC9F79E
:1032B000880F911D9695879597F90895E1E0660F1F
:1032C000771F881FBB1F621773078407BA0720F098
:1032D000621B730B840BBA0BEE1F88F7E095089501
:1032E0000E9477196894B1110C943A1808950E94BD
:1032F0001F1888F09F5798F0B92F9927B751B0F051
:10330000E1F0660F771F881F991F1AF0BA95C9F769
:1033100014C0B13091F00E943918B1E008950C94B6
:103320003918672F782F8827B85F39F0B93FCCF369
:10333000869577956795B395D9F73EF490958095E6
:10334000709561957F4F8F4F9F4F0895FA01EE0F53
:10335000FF1F309621053105A1F16115710561F45A
:103360008038BFE39B0749F168949038810561F08C
:103370008038BFEF9B0741F099234AF5FF3FE105F5
:103380003105210519F1E8940894E795D901AA239C
:1033900029F4AB2FBE2FF85FD0F310C0FF5F70F49D
:1033A000A695E0F7F73950F019F0FF3A38F49F7717
:1033B0009F930DD00F9007FC9058089546F00C9401
:1033C000F51760E070E080E89FE308954FE79F778E
:1033D0005F934F933F932F930E94A11A2F913F9198
:1033E0004F915F910E9482170C94FE1929F416F0F8
:1033F0000C94EF170C9439180C94F5170E941F18B1
:10340000A8F39638A0F707F80F92E8942BE33AEA6E
:1034100048EB5FE70E9498170F920F920F924DB7FB
:103420005EB70F920E94E91AECEDF0E00E94301AAC
:103430004F915F91EF91FF91E595EE1FFF1F49F0CE
:10344000FE57E0684427EE0F441FFA95E1F74195D7
:10345000550B0E94631A0F9007FE0C94571A08959B
:10346000DF93CF931F930F93FF92EF92DF927B0135
:103470008C01689406C0DA2EEF010E949517FE01B8
:10348000E894A5912591359145915591A6F3EF01C9
:103490000E94A918FE019701A801DA9469F7DF904C
:1034A000EF90FF900F911F91CF91DF9108959B01B5
:1034B000AC0160E070E080E89FE30C94FE180C948F
:1034C000EF170C941D1B0E941F18D8F39923C9F302
:1034D000940F511DA3F39150504094F059F088235C
:1034E00032F0660F771F881F91505040C1F79E3F02
:1034F00051052CF7880F911D9695879597F908959A
:103500005F3FACF0983E9CF0BB278695779567951A
:10351000B79508F4B1609395C1F7BB0F58F711F454
:1035200060FFE8CF6F5F7F4F8F4F9F4FE3CF0C94CB
:103530003A1816F00C941D1B0C94F51768940C9413
:10354000EF170E941F18A8F39923C1F3AEF3DF937E
:10355000CF931F930F93FF92C92FDD2788232AF063
:103560002197660F771F881FDAF720E030E040E8E8
:103570005FEB9FE3883920F0803E38F021968F770B
:103580000E949218E4E0F1E004C00E949218E1E386
:10359000F1E00E94301A8B01BE01EC01FB2E6F5747
:1035A00071097595771F880B990B0E94471728E1C1
:1035B00032E741E35FE30E949517AF2D9801AE011A
:1035C000FF900F911F91CF91DF910E94A9180C9449
:1035D0000618FA01DC01AA0FBB1F9B01AC01BF5703
:1035E00028F4222733274427507820C0B75190F47D
:1035F000AB2F0024469537952795011CA395D2F350
:10360000002071F0220F331F441FB395DAF30ED060
:103610000C94911861307105A0E88A07B94630F41E
:103620009B01AC016627772788279078309621F098
:10363000208331834283538308959F3F31F091501B
:1036400020F4879577956795B795880F911D969586
:10365000879597F90895991B79E004C0991F9617EB
:1036600008F0961B881F7A95C9F780950895AA1BC4
:10367000BB1B51E107C0AA1FBB1FA617B70710F05D
:10368000A61BB70B881F991F5A95A9F7809590958F
:10369000BC01CD01089597FB072E16F4009407D0C6
:1036A00077FD09D00E94371B07FC05D03EF49095AA
:1036B00081959F4F0895709561957F4F0895EE0F06
:1036C000FF1F0590F491E02D0994CF93DF93823092
:1036D000910510F482E090E0E091CC03F091CD03ED
:1036E00020E030E0C0E0D0E0309711F1408151811E
:1036F00048175907C0F04817590761F48281938130
:10370000209719F09B838A832BC09093CD038093DD
:10371000CC0326C02115310519F04217530718F4C0
:103720009A01BE01DF01EF010280F381E02DDCCFC1
:103730002115310509F1281B390B2430310590F48E
:1037400012968D919C9113976115710521F0FB01E3
:103750009383828304C09093CD038093CC03FD01B7
:10376000329644C0FD01E20FF31F819391932250E2
:1037700031092D933C933AC02091CA033091CB0379
:10378000232B41F420910801309109013093CB03A0
:103790002093CA03209106013091070121153105BC
:1037A00041F42DB73EB740910A0150910B01241B03
:1037B000350BE091CA03F091CB03E217F307A0F4B5
:1037C0002E1B3F0B2817390778F0AC014E5F5F4F77
:1037D0002417350748F04E0F5F1F5093CB034093DB
:1037E000CA038193919302C0E0E0F0E0CF01DF9142
:1037F000CF9108950F931F93CF93DF93009709F410
:103800008CC0FC013297138212820091CC0310917C
:10381000CD030115110581F420813181820F931FA1
:103820002091CA033091CB032817390779F5F0931B
:10383000CB03E093CA0371C0D80140E050E0AE175B
:10384000BF0750F412962D913C911397AD012115AD
:10385000310509F1D901F3CF9D01DA0133832283C8
:1038600060817181860F971F8217930769F4EC01BD
:1038700028813981260F371F2E5F3F4F31832083E8
:103880008A819B8193838283452B29F4F093CD0316
:10389000E093CC0342C01396FC93EE931297ED0194
:1038A000499159919E01240F351FE217F30771F4D6
:1038B00080819181840F951F029611969C938E931F
:1038C0008281938113969C938E931297E0E0F0E0AF
:1038D000D80112968D919C911397009719F0F801D9
:1038E0008C01F6CF8D919C9198012E5F3F4F820FF6
:1038F000931F2091CA033091CB032817390769F42D
:10390000309729F41092CD031092CC0302C0138299
:1039100012821093CB030093CA03DF91CF911F91C2
:103920000F910895A0E0B0E0E8E9FCE10C944F1895
:10393000EC01009721F4CB010E94651BB8C0FC018B
:10394000E60FF71F9C0122503109E217F30708F434
:10395000ACC0D9010D911C91119706171707B0F053
:103960000530110508F49FC0C80104978617970712
:1039700008F499C002501109061B170B019311930B
:103980006D937C93CF010E94FA1B8DC05B01A01A3E
:10399000B10A4C01800E911EA091CC03B091CD03D1
:1039A00040E050E0E12CF12C109709F44AC0A81532
:1039B000B905D1F56D907C901197630182E0C80E36
:1039C000D11CCA14DB0480F1A3014A195B096A0106
:1039D00082E0C80ED11C1296BC9012971396AC913F
:1039E000B5E0CB16D10440F0B282A383518340836B
:1039F000D9016D937C930AC00E5F1F4FC301800FE6
:103A0000911FF90191838083EB2DFA2FE114F104CA
:103A100031F0D7011396FC93EE93129744C0F093C4
:103A2000CD03E093CC033FC08D919C911197481733
:103A3000590708F4AC017D0112960D90BC91A02DA0
:103A4000B3CF8091CA039091CB0388159905E1F417
:103A500046175707C8F48091060190910701009717
:103A600041F48DB79EB740910A0150910B01841B20
:103A7000950BE817F907C8F4F093CB03E093CA035A
:103A8000F901718360830FC0CB010E94651B7C012B
:103A9000009759F0A801BE010E94611DCE010E944D
:103AA000FA1BC70104C0CE0102C080E090E0CDB790
:103AB000DEB7EEE00C946B1881E090E0F8940C9483
:103AC0002D20FB01DC0102C001900D9241505040BD
:103AD000D8F70895FB01DC010D900020E9F711975C
:103AE00001900D920020E1F70895FB01DC010190A7
:103AF0000D920020E1F70895FB01DC010D900020FC
:103B0000E9F711974150504028F0019000200D92A4
:103B1000C9F708951C920895AEE0B0E0E2E9FDE136
:103B20000C9459180D891E8986E08C831A830983A9
:103B30008FEF9FE79E838D83AE01475E5F4F6F8956
:103B4000788DCE0101960E94AF1D2F813885F80136
:103B5000E20FF31F10822E96E4E00C947518ACE08F
:103B6000B0E0E5EBFDE10C944B187C016B018A01A0
:103B7000FC0117821682838181FFBDC1CE010196AF
:103B80004C01F7019381F60193FD859193FF81919B
:103B90006F01882309F4ABC1853239F493FD859117
:103BA00093FF81916F01853229F4B70190E00E9463
:103BB000971FE7CF512C312C20E02032A0F48B321C
:103BC00069F030F4803259F0833269F420612CC0FE
:103BD0008D3239F0803339F4216026C022602460B0
:103BE00023C0286021C027FD27C030ED380F3A30B0
:103BF00078F426FF06C0FAE05F9E300D1124532EA4
:103C000013C08AE0389E300D1124332E20620CC080
:103C10008E3221F426FD6BC1206406C08C3611F46F
:103C2000206802C0883641F4F60193FD859193FF28
:103C300081916F018111C1CF982F9F7D9554933051
:103C400028F40C5F1F4FFFE3F9830DC0833631F07A
:103C5000833771F0833509F05BC022C0F8018081A1
:103C600089830E5F1F4F44244394512C540115C087
:103C70003801F2E06F0E711CF801A080B18026FFC0
:103C800003C0652D70E002C06FEF7FEFC5012C8788
:103C90000E948C1F2C0183012C852F77222E17C0A8
:103CA0003801F2E06F0E711CF801A080B18026FF90
:103CB00003C0652D70E002C06FEF7FEFC5012C8758
:103CC0000E94811F2C012C852068222E830123FC59
:103CD0001BC0832D90E048165906B0F4B70180E26E
:103CE00090E00E94971F3A94F4CFF50127FC85914C
:103CF00027FE81915F01B70190E00E94971F31106C
:103D00003A94F1E04F1A51084114510471F7E5C09B
:103D1000843611F0893639F5F80127FF07C0608134
:103D20007181828193810C5F1F4F08C06081718116
:103D3000072E000C880B990B0E5F1F4F2F76722EEB
:103D400097FF09C090958095709561957F4F8F4F33
:103D50009F4F2068722E2AE030E0A4010E94CF1FFE
:103D6000A82EA81844C0853729F42F7EB22E2AE049
:103D700030E025C0F22FF97FBF2E8F36C1F018F446
:103D8000883579F0B4C0803719F0883721F0AFC09A
:103D90002F2F2061B22EB4FE0DC08B2D8460B82E63
:103DA00009C024FF0AC09F2F9660B92E06C028E0E4
:103DB00030E005C020E130E002C020E132E0F8014F
:103DC000B7FE07C060817181828193810C5F1F4FB4
:103DD00006C06081718180E090E00E5F1F4FA401FA
:103DE0000E94CF1FA82EA818FB2DFF777F2E76FEEE
:103DF0000BC0372D3E7FA51450F474FE0AC072FC30
:103E000008C0372D3E7E05C0BA2C372D03C0BA2C12
:103E100001C0B52C34FF0DC0FE01EA0DF11D8081FB
:103E2000803311F4397E09C032FF06C0B394B394D5
:103E300004C0832F867809F0B39433FD13C030FF9C
:103E400006C05A2CB31418F4530C5B18B32CB314DB
:103E500068F4B70180E290E03C870E94971FB3941A
:103E60003C85F5CFB31410F43B1801C0312C34FF5E
:103E700012C0B70180E390E03C870E94971F3C8509
:103E800032FF17C031FD03C088E790E002C088E52B
:103E900090E0B7010CC0832F867859F031FF02C043
:103EA0008BE201C080E237FD8DE2B70190E00E9415
:103EB000971FA51438F4B70180E390E00E94971F84
:103EC0005A94F7CFAA94F401EA0DF11D8081B7014D
:103ED00090E00E94971FA110F5CF332009F451CE36
:103EE000B70180E290E00E94971F3A94F6CFF70165
:103EF0008681978102C08FEF9FEF2C96E2E10C94B0
:103F00006718FC010590615070400110D8F780954A
:103F100090958E0F9F1F0895FC0161507040019095
:103F20000110D8F7809590958E0F9F1F08950F93DD
:103F30001F93CF93DF93FB01238121FD03C08FEFFC
:103F40009FEF28C022FF16C046815781248135810A
:103F50004217530744F4A081B1819D012F5F3F4F69
:103F6000318320838C93268137812F5F3F4F3783A6
:103F7000268310C0EB01092F182F0084F185E02D56
:103F80000995892BE1F68E819F8101969F838E830F
:103F9000812F902FDF91CF911F910F910895FA01FA
:103FA000AA27283051F1203181F1E8946F936E7F78
:103FB0006E5F7F4F8F4F9F4FAF4FB1E03ED0B4E069
:103FC0003CD0670F781F891F9A1FA11D680F791FAA
:103FD0008A1F911DA11D6A0F711D811D911DA11DBB
:103FE00020D009F468943F912AE0269F11243019CB
:103FF000305D3193DEF6CF010895462F4770405D66
:104000004193B3E00FD0C9F7F6CF462F4F70405D14
:104010004A3318F0495D31FD4052419302D0A9F76F
:10402000EACFB4E0A6959795879577956795BA9569
:10403000C9F700976105710508959B01AC010A2E2F
:1040400006945795479537952795BA95C9F7620F06
:10405000731F841F951FA01D089510E0C9EED0E0C6
:1040600004C0FE010E945F1B2196CA3ED107C9F71A
:04407000F894FFCFF2
:104074000100010005000000CE03800000000300E1
:104084000E0009000600FB0103020C0212021802D2
:104094001C02210226022D0237023F02480251026D
:1040A400580260026A0273027A028302000000006E
:1040B4001C02EC014C02C001E401D001C10100006A
:1040C4000000130415014C024B02483A69202020D9
:1040D400642E6D2E790054656D703A20005E4300A5
:1040E40057696C676F746E6F73633A2000250043E1
:1040F40069736E69656E69653A0068506100577945
:10410400736F6B6F73633A20004E6965205061646E
:104114006100300073005345542061627920757347
:1041240074617769630064617465206920676F64F2
:104134007A696E652E005E47005E4D005E52005E39
:104144004400556E6B6E6F776E006E64007264008F
:10415400746800414D00504D00706D00616D002584
:1041640030326400256400256C75004A616E756107
:104174007279004665627275617279004D6172638D
:104184006800417072696C004D6179004A756E6512
:10419400004A756C790041756775737400536570D6
:1041A40074656D626572004F63746F626572004E70
:1041B4006F76656D62657200446563656D626572F4
:1041C400004D6F6E646179005475657364617900A4
:1041D4005765646E657364617900546875727364BD
:1041E400617900467269646179005361747572641F
:0A41F40061790053756E6461790073
:107E0000112484B714BE81FFF0D085E080938100F7
:107E100082E08093C00088E18093C10086E0809377
:107E2000C20080E18093C4008EE0C9D0259A86E02C
:107E300020E33CEF91E0309385002093840096BBD3
:107E4000B09BFECF1D9AA8958150A9F7CC24DD24C4
:107E500088248394B5E0AB2EA1E19A2EF3E0BF2EE7
:107E6000A2D0813461F49FD0082FAFD0023811F036
:107E7000013811F484E001C083E08DD089C08234E0
:107E800011F484E103C0853419F485E0A6D080C0E4
:107E9000853579F488D0E82EFF2485D0082F10E0AE
:107EA000102F00270E291F29000F111F8ED06801E7
:107EB0006FC0863521F484E090D080E0DECF843638
:107EC00009F040C070D06FD0082F6DD080E0C81688
:107ED00080E7D80618F4F601B7BEE895C0E0D1E017
:107EE00062D089930C17E1F7F0E0CF16F0E7DF06D8
:107EF00018F0F601B7BEE89568D007B600FCFDCFD4
:107F0000A601A0E0B1E02C9130E011968C91119780
:107F100090E0982F8827822B932B1296FA010C0160
:107F200087BEE89511244E5F5F4FF1E0A038BF0790
:107F300051F7F601A7BEE89507B600FCFDCF97BE46
:107F4000E89526C08437B1F42ED02DD0F82E2BD052
:107F50003CD0F601EF2C8F010F5F1F4F84911BD097
:107F6000EA94F801C1F70894C11CD11CFA94CF0C13
:107F7000D11C0EC0853739F428D08EE10CD085E9AC
:107F80000AD08FE07ACF813511F488E018D01DD067
:107F900080E101D065CF982F8091C00085FFFCCF94
:107FA0009093C60008958091C00087FFFCCF809118
:107FB000C00084FD01C0A8958091C6000895E0E648
:107FC000F0E098E1908380830895EDDF803219F02E
:107FD00088E0F5DFFFCF84E1DECF1F93182FE3DFCA
:107FE0001150E9F7F2DF1F91089580E0E8DFEE27F6
:047FF000FF270994CA
:027FFE00040479
:0400000300007E007B
:00000001FF
